{
  "_format": "hh-sol-artifact-1",
  "contractName": "PeepInContract",
  "sourceName": "contracts/PeepInContract.sol",
  "abi": [
    {
      "inputs": [],
      "stateMutability": "nonpayable",
      "type": "constructor"
    },
    {
      "anonymous": false,
      "inputs": [
        {
          "indexed": false,
          "internalType": "address",
          "name": "previousAdmin",
          "type": "address"
        },
        {
          "indexed": false,
          "internalType": "address",
          "name": "newAdmin",
          "type": "address"
        }
      ],
      "name": "AdminChanged",
      "type": "event"
    },
    {
      "anonymous": false,
      "inputs": [
        {
          "indexed": true,
          "internalType": "address",
          "name": "beacon",
          "type": "address"
        }
      ],
      "name": "BeaconUpgraded",
      "type": "event"
    },
    {
      "anonymous": false,
      "inputs": [
        {
          "indexed": false,
          "internalType": "uint8",
          "name": "version",
          "type": "uint8"
        }
      ],
      "name": "Initialized",
      "type": "event"
    },
    {
      "anonymous": false,
      "inputs": [
        {
          "indexed": true,
          "internalType": "uint256",
          "name": "tokenId",
          "type": "uint256"
        },
        {
          "indexed": true,
          "internalType": "address",
          "name": "to",
          "type": "address"
        },
        {
          "indexed": false,
          "internalType": "string",
          "name": "uri",
          "type": "string"
        }
      ],
      "name": "NewEntry",
      "type": "event"
    },
    {
      "anonymous": false,
      "inputs": [
        {
          "indexed": true,
          "internalType": "address",
          "name": "previousOwner",
          "type": "address"
        },
        {
          "indexed": true,
          "internalType": "address",
          "name": "newOwner",
          "type": "address"
        }
      ],
      "name": "OwnershipTransferred",
      "type": "event"
    },
    {
      "anonymous": false,
      "inputs": [
        {
          "indexed": true,
          "internalType": "uint256",
          "name": "tokenId",
          "type": "uint256"
        },
        {
          "indexed": true,
          "internalType": "address",
          "name": "reviewer",
          "type": "address"
        },
        {
          "indexed": false,
          "internalType": "uint256",
          "name": "rating",
          "type": "uint256"
        },
        {
          "indexed": false,
          "internalType": "uint256",
          "name": "timestamp",
          "type": "uint256"
        },
        {
          "indexed": false,
          "internalType": "string",
          "name": "reviewLink",
          "type": "string"
        }
      ],
      "name": "ReviewSubmitted",
      "type": "event"
    },
    {
      "anonymous": false,
      "inputs": [
        {
          "indexed": true,
          "internalType": "uint256",
          "name": "tokenId",
          "type": "uint256"
        },
        {
          "indexed": true,
          "internalType": "address",
          "name": "reviewer",
          "type": "address"
        },
        {
          "indexed": true,
          "internalType": "address",
          "name": "reviewStatuser",
          "type": "address"
        },
        {
          "indexed": false,
          "internalType": "enum PeepInContract.ReviewStatus",
          "name": "status",
          "type": "uint8"
        }
      ],
      "name": "StatusSubmitted",
      "type": "event"
    },
    {
      "anonymous": false,
      "inputs": [
        {
          "indexed": true,
          "internalType": "address",
          "name": "implementation",
          "type": "address"
        }
      ],
      "name": "Upgraded",
      "type": "event"
    },
    {
      "inputs": [],
      "name": "RATING_PRECISION",
      "outputs": [
        {
          "internalType": "uint256",
          "name": "",
          "type": "uint256"
        }
      ],
      "stateMutability": "view",
      "type": "function"
    },
    {
      "inputs": [
        {
          "internalType": "address",
          "name": "to",
          "type": "address"
        },
        {
          "internalType": "string",
          "name": "uri",
          "type": "string"
        }
      ],
      "name": "addCompany",
      "outputs": [],
      "stateMutability": "nonpayable",
      "type": "function"
    },
    {
      "inputs": [
        {
          "internalType": "uint256",
          "name": "",
          "type": "uint256"
        }
      ],
      "name": "companyMetadata",
      "outputs": [
        {
          "internalType": "string",
          "name": "",
          "type": "string"
        }
      ],
      "stateMutability": "view",
      "type": "function"
    },
    {
      "inputs": [
        {
          "internalType": "uint256",
          "name": "tokenId",
          "type": "uint256"
        },
        {
          "internalType": "string",
          "name": "uri",
          "type": "string"
        }
      ],
      "name": "editCompany",
      "outputs": [],
      "stateMutability": "nonpayable",
      "type": "function"
    },
    {
      "inputs": [
        {
          "internalType": "address payable",
          "name": "_to",
          "type": "address"
        }
      ],
      "name": "feesWithdraw",
      "outputs": [],
      "stateMutability": "nonpayable",
      "type": "function"
    },
    {
      "inputs": [
        {
          "internalType": "uint256",
          "name": "tokenId",
          "type": "uint256"
        }
      ],
      "name": "getAverageRating",
      "outputs": [
        {
          "internalType": "uint256",
          "name": "",
          "type": "uint256"
        }
      ],
      "stateMutability": "view",
      "type": "function"
    },
    {
      "inputs": [
        {
          "internalType": "uint256",
          "name": "tokenId",
          "type": "uint256"
        },
        {
          "internalType": "address",
          "name": "reviewer",
          "type": "address"
        }
      ],
      "name": "getReview",
      "outputs": [
        {
          "internalType": "uint128",
          "name": "",
          "type": "uint128"
        },
        {
          "internalType": "uint128",
          "name": "",
          "type": "uint128"
        },
        {
          "internalType": "string",
          "name": "",
          "type": "string"
        }
      ],
      "stateMutability": "view",
      "type": "function"
    },
    {
      "inputs": [],
      "name": "getTrustedForwarder",
      "outputs": [
        {
          "internalType": "address",
          "name": "forwarder",
          "type": "address"
        }
      ],
      "stateMutability": "view",
      "type": "function"
    },
    {
      "inputs": [
        {
          "internalType": "address",
          "name": "trustedForwarder_",
          "type": "address"
        }
      ],
      "name": "initialize",
      "outputs": [],
      "stateMutability": "nonpayable",
      "type": "function"
    },
    {
      "inputs": [
        {
          "internalType": "address",
          "name": "forwarder",
          "type": "address"
        }
      ],
      "name": "isTrustedForwarder",
      "outputs": [
        {
          "internalType": "bool",
          "name": "",
          "type": "bool"
        }
      ],
      "stateMutability": "view",
      "type": "function"
    },
    {
      "inputs": [],
      "name": "owner",
      "outputs": [
        {
          "internalType": "address",
          "name": "",
          "type": "address"
        }
      ],
      "stateMutability": "view",
      "type": "function"
    },
    {
      "inputs": [
        {
          "internalType": "address",
          "name": "",
          "type": "address"
        }
      ],
      "name": "ownerIs",
      "outputs": [
        {
          "internalType": "uint256",
          "name": "",
          "type": "uint256"
        }
      ],
      "stateMutability": "view",
      "type": "function"
    },
    {
      "inputs": [
        {
          "internalType": "uint256",
          "name": "",
          "type": "uint256"
        }
      ],
      "name": "ownerOf",
      "outputs": [
        {
          "internalType": "address",
          "name": "",
          "type": "address"
        }
      ],
      "stateMutability": "view",
      "type": "function"
    },
    {
      "inputs": [],
      "name": "proxiableUUID",
      "outputs": [
        {
          "internalType": "bytes32",
          "name": "",
          "type": "bytes32"
        }
      ],
      "stateMutability": "view",
      "type": "function"
    },
    {
      "inputs": [
        {
          "internalType": "uint256",
          "name": "",
          "type": "uint256"
        }
      ],
      "name": "ratingsData",
      "outputs": [
        {
          "internalType": "uint128",
          "name": "totalRating",
          "type": "uint128"
        },
        {
          "internalType": "uint128",
          "name": "totalCount",
          "type": "uint128"
        }
      ],
      "stateMutability": "view",
      "type": "function"
    },
    {
      "inputs": [],
      "name": "renounceOwnership",
      "outputs": [],
      "stateMutability": "nonpayable",
      "type": "function"
    },
    {
      "inputs": [
        {
          "internalType": "uint256",
          "name": "",
          "type": "uint256"
        },
        {
          "internalType": "address",
          "name": "",
          "type": "address"
        }
      ],
      "name": "reviewStatus",
      "outputs": [
        {
          "internalType": "uint256",
          "name": "trueCount",
          "type": "uint256"
        },
        {
          "internalType": "uint256",
          "name": "lieCount",
          "type": "uint256"
        },
        {
          "internalType": "uint256",
          "name": "reportCount",
          "type": "uint256"
        }
      ],
      "stateMutability": "view",
      "type": "function"
    },
    {
      "inputs": [
        {
          "internalType": "uint256",
          "name": "",
          "type": "uint256"
        },
        {
          "internalType": "address",
          "name": "",
          "type": "address"
        },
        {
          "internalType": "address",
          "name": "",
          "type": "address"
        }
      ],
      "name": "statusData",
      "outputs": [
        {
          "internalType": "enum PeepInContract.ReviewStatus",
          "name": "",
          "type": "uint8"
        }
      ],
      "stateMutability": "view",
      "type": "function"
    },
    {
      "inputs": [
        {
          "internalType": "uint256",
          "name": "tokenId",
          "type": "uint256"
        },
        {
          "internalType": "uint128",
          "name": "rating",
          "type": "uint128"
        },
        {
          "internalType": "string",
          "name": "reviewLink",
          "type": "string"
        }
      ],
      "name": "submitReview",
      "outputs": [],
      "stateMutability": "nonpayable",
      "type": "function"
    },
    {
      "inputs": [
        {
          "internalType": "uint256",
          "name": "tokenId",
          "type": "uint256"
        },
        {
          "internalType": "address",
          "name": "reviewer",
          "type": "address"
        },
        {
          "internalType": "enum PeepInContract.ReviewStatus",
          "name": "status",
          "type": "uint8"
        }
      ],
      "name": "submitStatus",
      "outputs": [],
      "stateMutability": "nonpayable",
      "type": "function"
    },
    {
      "inputs": [],
      "name": "totalCom",
      "outputs": [
        {
          "internalType": "uint256",
          "name": "",
          "type": "uint256"
        }
      ],
      "stateMutability": "view",
      "type": "function"
    },
    {
      "inputs": [
        {
          "internalType": "address",
          "name": "newOwner",
          "type": "address"
        }
      ],
      "name": "transferOwnership",
      "outputs": [],
      "stateMutability": "nonpayable",
      "type": "function"
    },
    {
      "inputs": [
        {
          "internalType": "address",
          "name": "newImplementation",
          "type": "address"
        }
      ],
      "name": "upgradeTo",
      "outputs": [],
      "stateMutability": "nonpayable",
      "type": "function"
    },
    {
      "inputs": [
        {
          "internalType": "address",
          "name": "newImplementation",
          "type": "address"
        },
        {
          "internalType": "bytes",
          "name": "data",
          "type": "bytes"
        }
      ],
      "name": "upgradeToAndCall",
      "outputs": [],
      "stateMutability": "payable",
      "type": "function"
    }
  ],
  "bytecode": "0x60a06040523060805234801561001457600080fd5b5061001d610022565b6100e1565b600054610100900460ff161561008e5760405162461bcd60e51b815260206004820152602760248201527f496e697469616c697a61626c653a20636f6e747261637420697320696e697469604482015266616c697a696e6760c81b606482015260840160405180910390fd5b60005460ff908116146100df576000805460ff191660ff9081179091556040519081527f7f26b83ff96e1f2b6a682f133852f6798a09c465da95921460cefb38474024989060200160405180910390a15b565b60805161206a62000119600039600081816106cb01528181610714015281816107b3015281816107f30152610886015261206a6000f3fe60806040526004361061014b5760003560e01c80638da5cb5b116100b6578063cfbbbb961161006f578063cfbbbb961461048e578063eaa6958b146104a5578063ed234e20146104d2578063f2fde38b146104f2578063f847d6c114610512578063f9faa6b71461053257600080fd5b80638da5cb5b14610321578063a237d6d71461033f578063be95f4391461038d578063c4d66de8146103ee578063c65468d21461040e578063ce1b815f1461047057600080fd5b8063572b6c0511610108578063572b6c05146102295780636352211e146102685780636cfa3b73146102b6578063715018a6146102cc578063789f0b89146102e157806389b73c771461030157600080fd5b806317b7e03e146101505780632101ff65146101835780632abe84a1146101b25780633659cfe6146101df5780634f1ef2861461020157806352d1902d14610214575b600080fd5b34801561015c57600080fd5b5061017061016b3660046118fc565b610552565b6040519081526020015b60405180910390f35b34801561018f57600080fd5b506101a361019e36600461192a565b6105bf565b60405161017a939291906119aa565b3480156101be57600080fd5b506101706101cd3660046119df565b60d06020526000908152604090205481565b3480156101eb57600080fd5b506101ff6101fa3660046119df565b6106c1565b005b6101ff61020f366004611a88565b6107a9565b34801561022057600080fd5b50610170610879565b34801561023557600080fd5b506102586102443660046119df565b60c9546001600160a01b0391821691161490565b604051901515815260200161017a565b34801561027457600080fd5b5061029e6102833660046118fc565b60cb602052600090815260409020546001600160a01b031681565b6040516001600160a01b03909116815260200161017a565b3480156102c257600080fd5b5061017060cd5481565b3480156102d857600080fd5b506101ff61092c565b3480156102ed57600080fd5b506101ff6102fc366004611b0c565b610940565b34801561030d57600080fd5b506101ff61031c3660046119df565b610ada565b34801561032d57600080fd5b506097546001600160a01b031661029e565b34801561034b57600080fd5b5061038061035a366004611b71565b60d160209081526000938452604080852082529284528284209052825290205460ff1681565b60405161017a9190611bc9565b34801561039957600080fd5b506103ce6103a83660046118fc565b60cf602052600090815260409020546001600160801b0380821691600160801b90041682565b604080516001600160801b0393841681529290911660208301520161017a565b3480156103fa57600080fd5b506101ff6104093660046119df565b610b56565b34801561041a57600080fd5b5061045561042936600461192a565b60d260209081526000928352604080842090915290825290208054600182015460029092015490919083565b6040805193845260208401929092529082015260600161017a565b34801561047c57600080fd5b5060c9546001600160a01b031661029e565b34801561049a57600080fd5b50610170620f424081565b3480156104b157600080fd5b506104c56104c03660046118fc565b610c98565b60405161017a9190611bf1565b3480156104de57600080fd5b506101ff6104ed366004611c04565b610d32565b3480156104fe57600080fd5b506101ff61050d3660046119df565b610e73565b34801561051e57600080fd5b506101ff61052d366004611c4a565b610ee9565b34801561053e57600080fd5b506101ff61054d366004611c7b565b610fcd565b600081815260cf6020526040812054600160801b90046001600160801b0316810361057f57506000919050565b600082815260cf60205260409020546001600160801b03600160801b82048116916105af91620f42409116611ccc565b6105b99190611ce3565b92915050565b600082815260ce602090815260408083206001600160a01b0385168452825280832081516060818101845282546001600160801b038082168452600160801b90910416948201949094526001820180548695948694929084019161062290611d05565b80601f016020809104026020016040519081016040528092919081815260200182805461064e90611d05565b801561069b5780601f106106705761010080835404028352916020019161069b565b820191906000526020600020905b81548152906001019060200180831161067e57829003601f168201915b505050919092525050815160208301516040909301519099929850965090945050505050565b6001600160a01b037f00000000000000000000000000000000000000000000000000000000000000001630036107125760405162461bcd60e51b815260040161070990611d3f565b60405180910390fd5b7f00000000000000000000000000000000000000000000000000000000000000006001600160a01b031661075b600080516020611fee833981519152546001600160a01b031690565b6001600160a01b0316146107815760405162461bcd60e51b815260040161070990611d8b565b61078a8161126b565b604080516000808252602082019092526107a691839190611273565b50565b6001600160a01b037f00000000000000000000000000000000000000000000000000000000000000001630036107f15760405162461bcd60e51b815260040161070990611d3f565b7f00000000000000000000000000000000000000000000000000000000000000006001600160a01b031661083a600080516020611fee833981519152546001600160a01b031690565b6001600160a01b0316146108605760405162461bcd60e51b815260040161070990611d8b565b6108698261126b565b61087582826001611273565b5050565b6000306001600160a01b037f000000000000000000000000000000000000000000000000000000000000000016146109195760405162461bcd60e51b815260206004820152603860248201527f555550535570677261646561626c653a206d757374206e6f742062652063616c60448201527f6c6564207468726f7567682064656c656761746563616c6c00000000000000006064820152608401610709565b50600080516020611fee83398151915290565b6109346113e3565b61093e600061145c565b565b6001826001600160801b03161015801561096457506005826001600160801b031611155b6109a15760405162461bcd60e51b815260206004820152600e60248201526d496e76616c696420726174696e6760901b6044820152606401610709565b600083815260ce602052604081206109e7918591906109be6114ae565b6001600160a01b031681526020810191909152604001600020546001600160801b0316846114bd565b60006040518060600160405280846001600160801b03168152602001426001600160801b031681526020018381525090508060ce60008681526020019081526020016000206000610a366114ae565b6001600160a01b0316815260208082019290925260409081016000208351928401516001600160801b03908116600160801b0293169290921782558201516001820190610a839082611e25565b50905050610a8f6114ae565b6001600160a01b0316847f1c70a9494d995a031d308f3b6a0a2d15c50b9103e38461cea81bac8eb4a0dd8f854286604051610acc93929190611ee5565b60405180910390a350505050565b610ae26113e3565b6040513031906001600160a01b0383169082156108fc029083906000818181858888f193505050506108755760405162461bcd60e51b815260206004820152601d60248201527f466565205472616e7366657220746f204f776e6572206661696c65642e0000006044820152606401610709565b600054610100900460ff1615808015610b765750600054600160ff909116105b80610b905750303b158015610b90575060005460ff166001145b610bf35760405162461bcd60e51b815260206004820152602e60248201527f496e697469616c697a61626c653a20636f6e747261637420697320616c72656160448201526d191e481a5b9a5d1a585b1a5e995960921b6064820152608401610709565b6000805460ff191660011790558015610c16576000805461ff0019166101001790555b610c1e6115e5565b610c26611614565b60c980546001600160a01b0319166001600160a01b038416179055610c4f60ca80546001019055565b8015610875576000805461ff0019169055604051600181527f7f26b83ff96e1f2b6a682f133852f6798a09c465da95921460cefb38474024989060200160405180910390a15050565b60cc6020526000908152604090208054610cb190611d05565b80601f0160208091040260200160405190810160405280929190818152602001828054610cdd90611d05565b8015610d2a5780601f10610cff57610100808354040283529160200191610d2a565b820191906000526020600020905b815481529060010190602001808311610d0d57829003601f168201915b505050505081565b610d3a6113e3565b6001600160a01b038216600090815260d0602052604090205415610dae5760405162461bcd60e51b815260206004820152602560248201527f4164647265737320697320616c7265616479206f776e6572206f66206120636f6044820152646d70616e7960d81b6064820152608401610709565b6000610db960ca5490565b9050610dc960ca80546001019055565b600081815260cb6020908152604080832080546001600160a01b0319166001600160a01b038816908117909155835260d0825280832084905583835260cc9091529020610e168382611e25565b5060cd8054906000610e2783611f0d565b9190505550826001600160a01b0316817f126b1179a2f21d5e130df19f7483a0a854bb662e3c8ce5dc28e4e8e46dd7269084604051610e669190611bf1565b60405180910390a3505050565b610e7b6113e3565b6001600160a01b038116610ee05760405162461bcd60e51b815260206004820152602660248201527f4f776e61626c653a206e6577206f776e657220697320746865207a65726f206160448201526564647265737360d01b6064820152608401610709565b6107a68161145c565b610ef16114ae565b600083815260cb60205260409020546001600160a01b03908116911614610f5a5760405162461bcd60e51b815260206004820152601760248201527f43616c6c6572206973206e6f7420746865206f776e65720000000000000000006044820152606401610709565b600082815260cc60205260409020610f728282611e25565b50600082815260cb6020526040908190205490516001600160a01b039091169083907f126b1179a2f21d5e130df19f7483a0a854bb662e3c8ce5dc28e4e8e46dd7269090610fc1908590611bf1565b60405180910390a35050565b6000816002811115610fe157610fe1611bb3565b1480610ffe57506001816002811115610ffc57610ffc611bb3565b145b8061101a5750600281600281111561101857611018611bb3565b145b6110575760405162461bcd60e51b815260206004820152600e60248201526d496e76616c69642073746174757360901b6044820152606401610709565b600083815260ce602090815260408083206001600160a01b03861684529091528120546001600160801b031690036110dd5760405162461bcd60e51b8152602060048201526024808201527f4e6f20726576696577207375626d69747465642062792074686973207265766960448201526332bbb2b960e11b6064820152608401610709565b600083815260d1602090815260408083206001600160a01b0386168452909152812082916111096114ae565b6001600160a01b031681526020810191909152604001600020805460ff1916600183600281111561113c5761113c611bb3565b0217905550600081600281111561115557611155611bb3565b0361119257600083815260d2602090815260408083206001600160a01b0386168452909152812080549161118883611f0d565b9190505550611213565b60018160028111156111a6576111a6611bb3565b036111dc57600083815260d2602090815260408083206001600160a01b0386168452909152812060010180549161118883611f0d565b600083815260d2602090815260408083206001600160a01b0386168452909152812060020180549161120d83611f0d565b91905055505b61121b6114ae565b6001600160a01b0316826001600160a01b0316847f394c66605d566e79393a96d9cfb23d77c469f32ec35a00b31922804c29206e908460405161125e9190611bc9565b60405180910390a4505050565b6107a66113e3565b7f4910fdfa16fed3260ed0e7147f7cc6da11a60208b5b9406d12a635614ffd91435460ff16156112ab576112a68361163b565b505050565b826001600160a01b03166352d1902d6040518163ffffffff1660e01b8152600401602060405180830381865afa925050508015611305575060408051601f3d908101601f1916820190925261130291810190611f26565b60015b6113685760405162461bcd60e51b815260206004820152602e60248201527f45524331393637557067726164653a206e657720696d706c656d656e7461746960448201526d6f6e206973206e6f74205555505360901b6064820152608401610709565b600080516020611fee83398151915281146113d75760405162461bcd60e51b815260206004820152602960248201527f45524331393637557067726164653a20756e737570706f727465642070726f786044820152681a58589b195555525160ba1b6064820152608401610709565b506112a68383836116d7565b6113eb6114ae565b6001600160a01b03166114066097546001600160a01b031690565b6001600160a01b03161461093e5760405162461bcd60e51b815260206004820181905260248201527f4f776e61626c653a2063616c6c6572206973206e6f7420746865206f776e65726044820152606401610709565b609780546001600160a01b038381166001600160a01b0319831681179093556040519116919082907f8be0079c531659141344cd1fd0a4f28419497f9722a3daafe3b4186f6b6457e090600090a35050565b60006114b8611702565b905090565b816001600160801b031660000361157b57600083815260cf6020526040812080548392906114f59084906001600160801b0316611f3f565b92506101000a8154816001600160801b0302191690836001600160801b03160217905550600160cf600085815260200190815260200160002060000160108282829054906101000a90046001600160801b03166115529190611f3f565b92506101000a8154816001600160801b0302191690836001600160801b03160217905550505050565b600083815260cf602052604090205482906115a09083906001600160801b0316611f3f565b6115aa9190611f66565b600093845260cf602052604090932080546fffffffffffffffffffffffffffffffff19166001600160801b0394909416939093179092555050565b600054610100900460ff1661160c5760405162461bcd60e51b815260040161070990611f86565b61093e611736565b600054610100900460ff1661093e5760405162461bcd60e51b815260040161070990611f86565b6001600160a01b0381163b6116a85760405162461bcd60e51b815260206004820152602d60248201527f455243313936373a206e657720696d706c656d656e746174696f6e206973206e60448201526c1bdd08184818dbdb9d1c9858dd609a1b6064820152608401610709565b600080516020611fee83398151915280546001600160a01b0319166001600160a01b0392909216919091179055565b6116e08361176d565b6000825111806116ed5750805b156112a6576116fc83836117ad565b50505050565b60006014361080159061171f575060c9546001600160a01b031633145b15611731575060131936013560601c90565b503390565b600054610100900460ff1661175d5760405162461bcd60e51b815260040161070990611f86565b61093e6117686114ae565b61145c565b6117768161163b565b6040516001600160a01b038216907fbc7cd75a20ee27fd9adebab32041f755214dbc6bffa90cc0225b39da2e5c2d3b90600090a250565b60606117d2838360405180606001604052806027815260200161200e602791396117d9565b9392505050565b6060600080856001600160a01b0316856040516117f69190611fd1565b600060405180830381855af49150503d8060008114611831576040519150601f19603f3d011682016040523d82523d6000602084013e611836565b606091505b509150915061184786838387611851565b9695505050505050565b606083156118c05782516000036118b9576001600160a01b0385163b6118b95760405162461bcd60e51b815260206004820152601d60248201527f416464726573733a2063616c6c20746f206e6f6e2d636f6e74726163740000006044820152606401610709565b50816118ca565b6118ca83836118d2565b949350505050565b8151156118e25781518083602001fd5b8060405162461bcd60e51b81526004016107099190611bf1565b60006020828403121561190e57600080fd5b5035919050565b6001600160a01b03811681146107a657600080fd5b6000806040838503121561193d57600080fd5b82359150602083013561194f81611915565b809150509250929050565b60005b8381101561197557818101518382015260200161195d565b50506000910152565b6000815180845261199681602086016020860161195a565b601f01601f19169290920160200192915050565b60006001600160801b038086168352808516602084015250606060408301526119d6606083018461197e565b95945050505050565b6000602082840312156119f157600080fd5b81356117d281611915565b634e487b7160e01b600052604160045260246000fd5b600067ffffffffffffffff80841115611a2d57611a2d6119fc565b604051601f8501601f19908116603f01168101908282118183101715611a5557611a556119fc565b81604052809350858152868686011115611a6e57600080fd5b858560208301376000602087830101525050509392505050565b60008060408385031215611a9b57600080fd5b8235611aa681611915565b9150602083013567ffffffffffffffff811115611ac257600080fd5b8301601f81018513611ad357600080fd5b611ae285823560208401611a12565b9150509250929050565b600082601f830112611afd57600080fd5b6117d283833560208501611a12565b600080600060608486031215611b2157600080fd5b8335925060208401356001600160801b0381168114611b3f57600080fd5b9150604084013567ffffffffffffffff811115611b5b57600080fd5b611b6786828701611aec565b9150509250925092565b600080600060608486031215611b8657600080fd5b833592506020840135611b9881611915565b91506040840135611ba881611915565b809150509250925092565b634e487b7160e01b600052602160045260246000fd5b6020810160038310611beb57634e487b7160e01b600052602160045260246000fd5b91905290565b6020815260006117d2602083018461197e565b60008060408385031215611c1757600080fd5b8235611c2281611915565b9150602083013567ffffffffffffffff811115611c3e57600080fd5b611ae285828601611aec565b60008060408385031215611c5d57600080fd5b82359150602083013567ffffffffffffffff811115611c3e57600080fd5b600080600060608486031215611c9057600080fd5b833592506020840135611ca281611915565b9150604084013560038110611ba857600080fd5b634e487b7160e01b600052601160045260246000fd5b80820281158282048414176105b9576105b9611cb6565b600082611d0057634e487b7160e01b600052601260045260246000fd5b500490565b600181811c90821680611d1957607f821691505b602082108103611d3957634e487b7160e01b600052602260045260246000fd5b50919050565b6020808252602c908201527f46756e6374696f6e206d7573742062652063616c6c6564207468726f7567682060408201526b19195b1959d85d1958d85b1b60a21b606082015260800190565b6020808252602c908201527f46756e6374696f6e206d7573742062652063616c6c6564207468726f7567682060408201526b6163746976652070726f787960a01b606082015260800190565b601f8211156112a657600081815260208120601f850160051c81016020861015611dfe5750805b601f850160051c820191505b81811015611e1d57828155600101611e0a565b505050505050565b815167ffffffffffffffff811115611e3f57611e3f6119fc565b611e5381611e4d8454611d05565b84611dd7565b602080601f831160018114611e885760008415611e705750858301515b600019600386901b1c1916600185901b178555611e1d565b600085815260208120601f198616915b82811015611eb757888601518255948401946001909101908401611e98565b5085821015611ed55787850151600019600388901b60f8161c191681555b5050505050600190811b01905550565b6001600160801b03841681528260208201526060604082015260006119d6606083018461197e565b600060018201611f1f57611f1f611cb6565b5060010190565b600060208284031215611f3857600080fd5b5051919050565b6001600160801b03818116838216019080821115611f5f57611f5f611cb6565b5092915050565b6001600160801b03828116828216039080821115611f5f57611f5f611cb6565b6020808252602b908201527f496e697469616c697a61626c653a20636f6e7472616374206973206e6f74206960408201526a6e697469616c697a696e6760a81b606082015260800190565b60008251611fe381846020870161195a565b919091019291505056fe360894a13ba1a3210667c828492db98dca3e2076cc3735a920a3ca505d382bbc416464726573733a206c6f772d6c6576656c2064656c65676174652063616c6c206661696c6564a2646970667358221220e6a62d0d8bc64f37a885bb87c878c2c776e3220adb9ba43c58c37632b14edcfe64736f6c63430008130033",
  "linkReferences": {},
  "deployedLinkReferences": {}
}