{
  "_format": "hh-sol-artifact-1",
  "contractName": "PeepInContract",
  "sourceName": "contracts/PeepInContract.sol",
  "abi": [
    {
      "inputs": [],
      "stateMutability": "nonpayable",
      "type": "constructor"
    },
    {
      "anonymous": false,
      "inputs": [
        {
          "indexed": false,
          "internalType": "address",
          "name": "previousAdmin",
          "type": "address"
        },
        {
          "indexed": false,
          "internalType": "address",
          "name": "newAdmin",
          "type": "address"
        }
      ],
      "name": "AdminChanged",
      "type": "event"
    },
    {
      "anonymous": false,
      "inputs": [
        {
          "indexed": true,
          "internalType": "address",
          "name": "beacon",
          "type": "address"
        }
      ],
      "name": "BeaconUpgraded",
      "type": "event"
    },
    {
      "anonymous": false,
      "inputs": [
        {
          "indexed": false,
          "internalType": "uint8",
          "name": "version",
          "type": "uint8"
        }
      ],
      "name": "Initialized",
      "type": "event"
    },
    {
      "anonymous": false,
      "inputs": [
        {
          "indexed": true,
          "internalType": "uint256",
          "name": "tokenId",
          "type": "uint256"
        },
        {
          "indexed": true,
          "internalType": "address",
          "name": "to",
          "type": "address"
        },
        {
          "indexed": false,
          "internalType": "string",
          "name": "uri",
          "type": "string"
        }
      ],
      "name": "NewEntry",
      "type": "event"
    },
    {
      "anonymous": false,
      "inputs": [
        {
          "indexed": true,
          "internalType": "address",
          "name": "previousOwner",
          "type": "address"
        },
        {
          "indexed": true,
          "internalType": "address",
          "name": "newOwner",
          "type": "address"
        }
      ],
      "name": "OwnershipTransferred",
      "type": "event"
    },
    {
      "anonymous": false,
      "inputs": [
        {
          "indexed": true,
          "internalType": "uint256",
          "name": "tokenId",
          "type": "uint256"
        },
        {
          "indexed": true,
          "internalType": "address",
          "name": "reviewer",
          "type": "address"
        },
        {
          "indexed": false,
          "internalType": "uint256",
          "name": "rating",
          "type": "uint256"
        },
        {
          "indexed": false,
          "internalType": "uint256",
          "name": "timestamp",
          "type": "uint256"
        },
        {
          "indexed": false,
          "internalType": "string",
          "name": "reviewLink",
          "type": "string"
        }
      ],
      "name": "ReviewSubmitted",
      "type": "event"
    },
    {
      "anonymous": false,
      "inputs": [
        {
          "indexed": true,
          "internalType": "address",
          "name": "implementation",
          "type": "address"
        }
      ],
      "name": "Upgraded",
      "type": "event"
    },
    {
      "inputs": [],
      "name": "RATING_PRECISION",
      "outputs": [
        {
          "internalType": "uint256",
          "name": "",
          "type": "uint256"
        }
      ],
      "stateMutability": "view",
      "type": "function"
    },
    {
      "inputs": [
        {
          "internalType": "address",
          "name": "to",
          "type": "address"
        },
        {
          "internalType": "string",
          "name": "uri",
          "type": "string"
        }
      ],
      "name": "addCompany",
      "outputs": [],
      "stateMutability": "nonpayable",
      "type": "function"
    },
    {
      "inputs": [
        {
          "internalType": "uint256",
          "name": "",
          "type": "uint256"
        }
      ],
      "name": "companyMetadata",
      "outputs": [
        {
          "internalType": "string",
          "name": "",
          "type": "string"
        }
      ],
      "stateMutability": "view",
      "type": "function"
    },
    {
      "inputs": [
        {
          "internalType": "uint256",
          "name": "tokenId",
          "type": "uint256"
        },
        {
          "internalType": "string",
          "name": "uri",
          "type": "string"
        }
      ],
      "name": "editCompany",
      "outputs": [],
      "stateMutability": "nonpayable",
      "type": "function"
    },
    {
      "inputs": [
        {
          "internalType": "address payable",
          "name": "_to",
          "type": "address"
        }
      ],
      "name": "feesWithdraw",
      "outputs": [],
      "stateMutability": "nonpayable",
      "type": "function"
    },
    {
      "inputs": [
        {
          "internalType": "uint256",
          "name": "tokenId",
          "type": "uint256"
        }
      ],
      "name": "getAverageRating",
      "outputs": [
        {
          "internalType": "uint256",
          "name": "",
          "type": "uint256"
        }
      ],
      "stateMutability": "view",
      "type": "function"
    },
    {
      "inputs": [
        {
          "internalType": "uint256",
          "name": "tokenId",
          "type": "uint256"
        },
        {
          "internalType": "address",
          "name": "reviewer",
          "type": "address"
        }
      ],
      "name": "getReview",
      "outputs": [
        {
          "internalType": "uint128",
          "name": "",
          "type": "uint128"
        },
        {
          "internalType": "uint128",
          "name": "",
          "type": "uint128"
        },
        {
          "internalType": "string",
          "name": "",
          "type": "string"
        }
      ],
      "stateMutability": "view",
      "type": "function"
    },
    {
      "inputs": [],
      "name": "getTrustedForwarder",
      "outputs": [
        {
          "internalType": "address",
          "name": "forwarder",
          "type": "address"
        }
      ],
      "stateMutability": "view",
      "type": "function"
    },
    {
      "inputs": [
        {
          "internalType": "address",
          "name": "trustedForwarder_",
          "type": "address"
        }
      ],
      "name": "initialize",
      "outputs": [],
      "stateMutability": "nonpayable",
      "type": "function"
    },
    {
      "inputs": [
        {
          "internalType": "address",
          "name": "forwarder",
          "type": "address"
        }
      ],
      "name": "isTrustedForwarder",
      "outputs": [
        {
          "internalType": "bool",
          "name": "",
          "type": "bool"
        }
      ],
      "stateMutability": "view",
      "type": "function"
    },
    {
      "inputs": [],
      "name": "owner",
      "outputs": [
        {
          "internalType": "address",
          "name": "",
          "type": "address"
        }
      ],
      "stateMutability": "view",
      "type": "function"
    },
    {
      "inputs": [
        {
          "internalType": "address",
          "name": "",
          "type": "address"
        }
      ],
      "name": "ownerIs",
      "outputs": [
        {
          "internalType": "uint256",
          "name": "",
          "type": "uint256"
        }
      ],
      "stateMutability": "view",
      "type": "function"
    },
    {
      "inputs": [
        {
          "internalType": "uint256",
          "name": "",
          "type": "uint256"
        }
      ],
      "name": "ownerOf",
      "outputs": [
        {
          "internalType": "address",
          "name": "",
          "type": "address"
        }
      ],
      "stateMutability": "view",
      "type": "function"
    },
    {
      "inputs": [],
      "name": "proxiableUUID",
      "outputs": [
        {
          "internalType": "bytes32",
          "name": "",
          "type": "bytes32"
        }
      ],
      "stateMutability": "view",
      "type": "function"
    },
    {
      "inputs": [
        {
          "internalType": "uint256",
          "name": "",
          "type": "uint256"
        }
      ],
      "name": "ratingsData",
      "outputs": [
        {
          "internalType": "uint128",
          "name": "totalRating",
          "type": "uint128"
        },
        {
          "internalType": "uint128",
          "name": "totalCount",
          "type": "uint128"
        }
      ],
      "stateMutability": "view",
      "type": "function"
    },
    {
      "inputs": [],
      "name": "renounceOwnership",
      "outputs": [],
      "stateMutability": "nonpayable",
      "type": "function"
    },
    {
      "inputs": [
        {
          "internalType": "uint256",
          "name": "tokenId",
          "type": "uint256"
        },
        {
          "internalType": "uint128",
          "name": "rating",
          "type": "uint128"
        },
        {
          "internalType": "string",
          "name": "reviewLink",
          "type": "string"
        }
      ],
      "name": "submitReview",
      "outputs": [],
      "stateMutability": "nonpayable",
      "type": "function"
    },
    {
      "inputs": [],
      "name": "totalCom",
      "outputs": [
        {
          "internalType": "uint256",
          "name": "",
          "type": "uint256"
        }
      ],
      "stateMutability": "view",
      "type": "function"
    },
    {
      "inputs": [
        {
          "internalType": "address",
          "name": "newOwner",
          "type": "address"
        }
      ],
      "name": "transferOwnership",
      "outputs": [],
      "stateMutability": "nonpayable",
      "type": "function"
    },
    {
      "inputs": [
        {
          "internalType": "address",
          "name": "newImplementation",
          "type": "address"
        }
      ],
      "name": "upgradeTo",
      "outputs": [],
      "stateMutability": "nonpayable",
      "type": "function"
    },
    {
      "inputs": [
        {
          "internalType": "address",
          "name": "newImplementation",
          "type": "address"
        },
        {
          "internalType": "bytes",
          "name": "data",
          "type": "bytes"
        }
      ],
      "name": "upgradeToAndCall",
      "outputs": [],
      "stateMutability": "payable",
      "type": "function"
    }
  ],
  "bytecode": "0x60a06040523060805234801561001457600080fd5b5061001d610022565b6100e1565b600054610100900460ff161561008e5760405162461bcd60e51b815260206004820152602760248201527f496e697469616c697a61626c653a20636f6e747261637420697320696e697469604482015266616c697a696e6760c81b606482015260840160405180910390fd5b60005460ff908116146100df576000805460ff191660ff9081179091556040519081527f7f26b83ff96e1f2b6a682f133852f6798a09c465da95921460cefb38474024989060200160405180910390a15b565b608051611c20610118600039600081816105da01528181610623015281816106c20152818161070201526107950152611c206000f3fe60806040526004361061012a5760003560e01c8063789f0b89116100ab578063ce1b815f1161006f578063ce1b815f1461039f578063cfbbbb96146103bd578063eaa6958b146103d4578063ed234e2014610401578063f2fde38b14610421578063f847d6c11461044157600080fd5b8063789f0b89146102c057806389b73c77146102e05780638da5cb5b14610300578063be95f4391461031e578063c4d66de81461037f57600080fd5b806352d1902d116100f257806352d1902d146101f3578063572b6c05146102085780636352211e146102475780636cfa3b7314610295578063715018a6146102ab57600080fd5b806317b7e03e1461012f5780632101ff65146101625780632abe84a1146101915780633659cfe6146101be5780634f1ef286146101e0575b600080fd5b34801561013b57600080fd5b5061014f61014a36600461156d565b610461565b6040519081526020015b60405180910390f35b34801561016e57600080fd5b5061018261017d36600461159b565b6104ce565b6040516101599392919061161b565b34801561019d57600080fd5b5061014f6101ac366004611650565b60d06020526000908152604090205481565b3480156101ca57600080fd5b506101de6101d9366004611650565b6105d0565b005b6101de6101ee3660046116f9565b6106b8565b3480156101ff57600080fd5b5061014f610788565b34801561021457600080fd5b50610237610223366004611650565b60c9546001600160a01b0391821691161490565b6040519015158152602001610159565b34801561025357600080fd5b5061027d61026236600461156d565b60cb602052600090815260409020546001600160a01b031681565b6040516001600160a01b039091168152602001610159565b3480156102a157600080fd5b5061014f60cd5481565b3480156102b757600080fd5b506101de61083b565b3480156102cc57600080fd5b506101de6102db36600461177d565b61084f565b3480156102ec57600080fd5b506101de6102fb366004611650565b6109e9565b34801561030c57600080fd5b506097546001600160a01b031661027d565b34801561032a57600080fd5b5061035f61033936600461156d565b60cf602052600090815260409020546001600160801b0380821691600160801b90041682565b604080516001600160801b03938416815292909116602083015201610159565b34801561038b57600080fd5b506101de61039a366004611650565b610a65565b3480156103ab57600080fd5b5060c9546001600160a01b031661027d565b3480156103c957600080fd5b5061014f620f424081565b3480156103e057600080fd5b506103f46103ef36600461156d565b610ba7565b60405161015991906117e2565b34801561040d57600080fd5b506101de61041c3660046117f5565b610c41565b34801561042d57600080fd5b506101de61043c366004611650565b610d82565b34801561044d57600080fd5b506101de61045c36600461183b565b610df8565b600081815260cf6020526040812054600160801b90046001600160801b0316810361048e57506000919050565b600082815260cf60205260409020546001600160801b03600160801b82048116916104be91620f42409116611882565b6104c89190611899565b92915050565b600082815260ce602090815260408083206001600160a01b0385168452825280832081516060818101845282546001600160801b038082168452600160801b909104169482019490945260018201805486959486949290840191610531906118bb565b80601f016020809104026020016040519081016040528092919081815260200182805461055d906118bb565b80156105aa5780601f1061057f576101008083540402835291602001916105aa565b820191906000526020600020905b81548152906001019060200180831161058d57829003601f168201915b505050919092525050815160208301516040909301519099929850965090945050505050565b6001600160a01b037f00000000000000000000000000000000000000000000000000000000000000001630036106215760405162461bcd60e51b8152600401610618906118f5565b60405180910390fd5b7f00000000000000000000000000000000000000000000000000000000000000006001600160a01b031661066a600080516020611ba4833981519152546001600160a01b031690565b6001600160a01b0316146106905760405162461bcd60e51b815260040161061890611941565b61069981610edc565b604080516000808252602082019092526106b591839190610ee4565b50565b6001600160a01b037f00000000000000000000000000000000000000000000000000000000000000001630036107005760405162461bcd60e51b8152600401610618906118f5565b7f00000000000000000000000000000000000000000000000000000000000000006001600160a01b0316610749600080516020611ba4833981519152546001600160a01b031690565b6001600160a01b03161461076f5760405162461bcd60e51b815260040161061890611941565b61077882610edc565b61078482826001610ee4565b5050565b6000306001600160a01b037f000000000000000000000000000000000000000000000000000000000000000016146108285760405162461bcd60e51b815260206004820152603860248201527f555550535570677261646561626c653a206d757374206e6f742062652063616c60448201527f6c6564207468726f7567682064656c656761746563616c6c00000000000000006064820152608401610618565b50600080516020611ba483398151915290565b610843611054565b61084d60006110cd565b565b6001826001600160801b03161015801561087357506005826001600160801b031611155b6108b05760405162461bcd60e51b815260206004820152600e60248201526d496e76616c696420726174696e6760901b6044820152606401610618565b600083815260ce602052604081206108f6918591906108cd61111f565b6001600160a01b031681526020810191909152604001600020546001600160801b03168461112e565b60006040518060600160405280846001600160801b03168152602001426001600160801b031681526020018381525090508060ce6000868152602001908152602001600020600061094561111f565b6001600160a01b0316815260208082019290925260409081016000208351928401516001600160801b03908116600160801b029316929092178255820151600182019061099290826119db565b5090505061099e61111f565b6001600160a01b0316847f1c70a9494d995a031d308f3b6a0a2d15c50b9103e38461cea81bac8eb4a0dd8f8542866040516109db93929190611a9b565b60405180910390a350505050565b6109f1611054565b6040513031906001600160a01b0383169082156108fc029083906000818181858888f193505050506107845760405162461bcd60e51b815260206004820152601d60248201527f466565205472616e7366657220746f204f776e6572206661696c65642e0000006044820152606401610618565b600054610100900460ff1615808015610a855750600054600160ff909116105b80610a9f5750303b158015610a9f575060005460ff166001145b610b025760405162461bcd60e51b815260206004820152602e60248201527f496e697469616c697a61626c653a20636f6e747261637420697320616c72656160448201526d191e481a5b9a5d1a585b1a5e995960921b6064820152608401610618565b6000805460ff191660011790558015610b25576000805461ff0019166101001790555b610b2d611256565b610b35611285565b60c980546001600160a01b0319166001600160a01b038416179055610b5e60ca80546001019055565b8015610784576000805461ff0019169055604051600181527f7f26b83ff96e1f2b6a682f133852f6798a09c465da95921460cefb38474024989060200160405180910390a15050565b60cc6020526000908152604090208054610bc0906118bb565b80601f0160208091040260200160405190810160405280929190818152602001828054610bec906118bb565b8015610c395780601f10610c0e57610100808354040283529160200191610c39565b820191906000526020600020905b815481529060010190602001808311610c1c57829003601f168201915b505050505081565b610c49611054565b6001600160a01b038216600090815260d0602052604090205415610cbd5760405162461bcd60e51b815260206004820152602560248201527f4164647265737320697320616c7265616479206f776e6572206f66206120636f6044820152646d70616e7960d81b6064820152608401610618565b6000610cc860ca5490565b9050610cd860ca80546001019055565b600081815260cb6020908152604080832080546001600160a01b0319166001600160a01b038816908117909155835260d0825280832084905583835260cc9091529020610d2583826119db565b5060cd8054906000610d3683611ac3565b9190505550826001600160a01b0316817f126b1179a2f21d5e130df19f7483a0a854bb662e3c8ce5dc28e4e8e46dd7269084604051610d7591906117e2565b60405180910390a3505050565b610d8a611054565b6001600160a01b038116610def5760405162461bcd60e51b815260206004820152602660248201527f4f776e61626c653a206e6577206f776e657220697320746865207a65726f206160448201526564647265737360d01b6064820152608401610618565b6106b5816110cd565b610e0061111f565b600083815260cb60205260409020546001600160a01b03908116911614610e695760405162461bcd60e51b815260206004820152601760248201527f43616c6c6572206973206e6f7420746865206f776e65720000000000000000006044820152606401610618565b600082815260cc60205260409020610e8182826119db565b50600082815260cb6020526040908190205490516001600160a01b039091169083907f126b1179a2f21d5e130df19f7483a0a854bb662e3c8ce5dc28e4e8e46dd7269090610ed09085906117e2565b60405180910390a35050565b6106b5611054565b7f4910fdfa16fed3260ed0e7147f7cc6da11a60208b5b9406d12a635614ffd91435460ff1615610f1c57610f17836112ac565b505050565b826001600160a01b03166352d1902d6040518163ffffffff1660e01b8152600401602060405180830381865afa925050508015610f76575060408051601f3d908101601f19168201909252610f7391810190611adc565b60015b610fd95760405162461bcd60e51b815260206004820152602e60248201527f45524331393637557067726164653a206e657720696d706c656d656e7461746960448201526d6f6e206973206e6f74205555505360901b6064820152608401610618565b600080516020611ba483398151915281146110485760405162461bcd60e51b815260206004820152602960248201527f45524331393637557067726164653a20756e737570706f727465642070726f786044820152681a58589b195555525160ba1b6064820152608401610618565b50610f17838383611348565b61105c61111f565b6001600160a01b03166110776097546001600160a01b031690565b6001600160a01b03161461084d5760405162461bcd60e51b815260206004820181905260248201527f4f776e61626c653a2063616c6c6572206973206e6f7420746865206f776e65726044820152606401610618565b609780546001600160a01b038381166001600160a01b0319831681179093556040519116919082907f8be0079c531659141344cd1fd0a4f28419497f9722a3daafe3b4186f6b6457e090600090a35050565b6000611129611373565b905090565b816001600160801b03166000036111ec57600083815260cf6020526040812080548392906111669084906001600160801b0316611af5565b92506101000a8154816001600160801b0302191690836001600160801b03160217905550600160cf600085815260200190815260200160002060000160108282829054906101000a90046001600160801b03166111c39190611af5565b92506101000a8154816001600160801b0302191690836001600160801b03160217905550505050565b600083815260cf602052604090205482906112119083906001600160801b0316611af5565b61121b9190611b1c565b600093845260cf602052604090932080546fffffffffffffffffffffffffffffffff19166001600160801b0394909416939093179092555050565b600054610100900460ff1661127d5760405162461bcd60e51b815260040161061890611b3c565b61084d6113a7565b600054610100900460ff1661084d5760405162461bcd60e51b815260040161061890611b3c565b6001600160a01b0381163b6113195760405162461bcd60e51b815260206004820152602d60248201527f455243313936373a206e657720696d706c656d656e746174696f6e206973206e60448201526c1bdd08184818dbdb9d1c9858dd609a1b6064820152608401610618565b600080516020611ba483398151915280546001600160a01b0319166001600160a01b0392909216919091179055565b611351836113de565b60008251118061135e5750805b15610f175761136d838361141e565b50505050565b600060143610801590611390575060c9546001600160a01b031633145b156113a2575060131936013560601c90565b503390565b600054610100900460ff166113ce5760405162461bcd60e51b815260040161061890611b3c565b61084d6113d961111f565b6110cd565b6113e7816112ac565b6040516001600160a01b038216907fbc7cd75a20ee27fd9adebab32041f755214dbc6bffa90cc0225b39da2e5c2d3b90600090a250565b60606114438383604051806060016040528060278152602001611bc46027913961144a565b9392505050565b6060600080856001600160a01b0316856040516114679190611b87565b600060405180830381855af49150503d80600081146114a2576040519150601f19603f3d011682016040523d82523d6000602084013e6114a7565b606091505b50915091506114b8868383876114c2565b9695505050505050565b6060831561153157825160000361152a576001600160a01b0385163b61152a5760405162461bcd60e51b815260206004820152601d60248201527f416464726573733a2063616c6c20746f206e6f6e2d636f6e74726163740000006044820152606401610618565b508161153b565b61153b8383611543565b949350505050565b8151156115535781518083602001fd5b8060405162461bcd60e51b815260040161061891906117e2565b60006020828403121561157f57600080fd5b5035919050565b6001600160a01b03811681146106b557600080fd5b600080604083850312156115ae57600080fd5b8235915060208301356115c081611586565b809150509250929050565b60005b838110156115e65781810151838201526020016115ce565b50506000910152565b600081518084526116078160208601602086016115cb565b601f01601f19169290920160200192915050565b60006001600160801b0380861683528085166020840152506060604083015261164760608301846115ef565b95945050505050565b60006020828403121561166257600080fd5b813561144381611586565b634e487b7160e01b600052604160045260246000fd5b600067ffffffffffffffff8084111561169e5761169e61166d565b604051601f8501601f19908116603f011681019082821181831017156116c6576116c661166d565b816040528093508581528686860111156116df57600080fd5b858560208301376000602087830101525050509392505050565b6000806040838503121561170c57600080fd5b823561171781611586565b9150602083013567ffffffffffffffff81111561173357600080fd5b8301601f8101851361174457600080fd5b61175385823560208401611683565b9150509250929050565b600082601f83011261176e57600080fd5b61144383833560208501611683565b60008060006060848603121561179257600080fd5b8335925060208401356001600160801b03811681146117b057600080fd5b9150604084013567ffffffffffffffff8111156117cc57600080fd5b6117d88682870161175d565b9150509250925092565b60208152600061144360208301846115ef565b6000806040838503121561180857600080fd5b823561181381611586565b9150602083013567ffffffffffffffff81111561182f57600080fd5b6117538582860161175d565b6000806040838503121561184e57600080fd5b82359150602083013567ffffffffffffffff81111561182f57600080fd5b634e487b7160e01b600052601160045260246000fd5b80820281158282048414176104c8576104c861186c565b6000826118b657634e487b7160e01b600052601260045260246000fd5b500490565b600181811c908216806118cf57607f821691505b6020821081036118ef57634e487b7160e01b600052602260045260246000fd5b50919050565b6020808252602c908201527f46756e6374696f6e206d7573742062652063616c6c6564207468726f7567682060408201526b19195b1959d85d1958d85b1b60a21b606082015260800190565b6020808252602c908201527f46756e6374696f6e206d7573742062652063616c6c6564207468726f7567682060408201526b6163746976652070726f787960a01b606082015260800190565b601f821115610f1757600081815260208120601f850160051c810160208610156119b45750805b601f850160051c820191505b818110156119d3578281556001016119c0565b505050505050565b815167ffffffffffffffff8111156119f5576119f561166d565b611a0981611a0384546118bb565b8461198d565b602080601f831160018114611a3e5760008415611a265750858301515b600019600386901b1c1916600185901b1785556119d3565b600085815260208120601f198616915b82811015611a6d57888601518255948401946001909101908401611a4e565b5085821015611a8b5787850151600019600388901b60f8161c191681555b5050505050600190811b01905550565b6001600160801b038416815282602082015260606040820152600061164760608301846115ef565b600060018201611ad557611ad561186c565b5060010190565b600060208284031215611aee57600080fd5b5051919050565b6001600160801b03818116838216019080821115611b1557611b1561186c565b5092915050565b6001600160801b03828116828216039080821115611b1557611b1561186c565b6020808252602b908201527f496e697469616c697a61626c653a20636f6e7472616374206973206e6f74206960408201526a6e697469616c697a696e6760a81b606082015260800190565b60008251611b998184602087016115cb565b919091019291505056fe360894a13ba1a3210667c828492db98dca3e2076cc3735a920a3ca505d382bbc416464726573733a206c6f772d6c6576656c2064656c65676174652063616c6c206661696c6564a264697066735822122005beeaf54b13768ec49bd930b58e5a2175fdc7c396e73d72f7188e94b571b9be64736f6c63430008130033",
  "linkReferences": {},
  "deployedLinkReferences": {}
}